:100000000C94C7310C94F8310C94F8310C94F831FD
:100010000C94F8310C947A950C94F8310C94F831D6
:100020000C9495980C94F8310C94F8310C94F831A8
:100030000C94F8310C9481F30C94F8310C94F83151
:100040000C94F8310D94F0300C94F8310C94F83194
:100050000C94F8310C94F8310D9415560C9460F40E
:100060000C94F8310C9479900C94F8310C94F8318C
:100070000C94F8310C94F8310C94F8310C94F8315C
:100080000C94F8310C94F8310C94F8310C94F8314C
:100090000C9435900C94F8310C94F8310C94F831A0
:1000A0000C94F8310C94F8310C94F8310C94F8312C
:1000B0000C94F8310C94F8310C94F8310C94F8311C
:1000C0000C94F8310C94F8310C94F8310C94809421
:1000D0000C94F8310C94F8310C94F8310C94F831FC
:1000E0000C94F831CB4DD14DD74DE24DED4D724EC4
:1000F000F84D014E0A4E154E204E2B4E3B4E464EAD
:10010000724E514E5C4E674E8BAC95AC38AC06AC23
:10011000D5AB72AFB8ACDDAD64AEBEAEDAAE11AF8A
:10012000B7F0B7F0BAF0B7F0BAF0BDF0C0F07EF1BA
:1001300081F170F174F17AF1B8F185F189F18FF103
:1001400093F197F19DF1A1F1A5F1B8F1ABF1AFF108
:10015000B3F1C6FBD4FBDAFBECFB07FC0DFC13FC94
:1001600021FC2FFC3DFC53FC61FC9801E401DE0105
:10017000B201E0013E01B801AE013601C2015801F1
:10018000CC017A017601A201D0015201AA01D40169
:1001900066015A016A01084AD73B3BCE016E84BC16
:1001A000BFFDC12F3D6C74319ABD56833DDA3D00D1
:1001B000C77F11BED9E4BB4C3E916BAAAABE00001A
:1001C00000803F05A84CCDB2D44EB93836A9020CF8
:1001D00050B9918688083CA6AAAA2ABE00000080D1
:1001E0003F07634236B79BD8A71A39685618AEBA8C
:1001F000AB558C1D3CB7CC5763BD6DEDFD753EF620
:10020000177231BF000000803F08000000BE92243A
:1002100049123EABAAAA2ABECDCCCC4C3E0000006F
:1002200080BEABAAAAAA3E00000000BF000000806A
:100230003F0000000000084178D3BB4387D1133D45
:10024000190E3CC3BD4282AD2B3E68EC8276BED90E
:100250008FE1A93E4C80EFFFBE01C4FF7F3F00004D
:10026000000000000D94A53D0D94B18A0D94622507
:100270000D940E230D94A00B0D94801E0D942D252E
:100280000D94431F0D94CE3C0D94371F0D9475B4FF
:100290000D94B23D0D94E00A0D9411420D944BB2B1
:1002A0000D94E0250D94BB900D94778A0D94571F03
:1002B0000D9467250D9437910D94CE8A0D942E8A56
:1002C0000D9414890D9440070D94961E0D94FA9088
:1002D0000D945F890D946C910D94C61F0D943E3D55
:1002E0000D94B4860D94FF3E0D94030B0D9493254D
:1002F0000D94041E0D9482250D948F860D94D23D8D
:100300000D94FE0B0D94681E0D94088B0D94948A29
:100310000D945A8A0D94A70A0D9488400D94BC1E22
:100320000D943D8A0D94781F0D9499070D94EB8AD6
:100330000D94C0240D94791E0D94B41F0D94218545
:100340000D94CF890D94B1900D94143F0D94DD85DB
:100350000D944F850D94C4900D94CC400D9454256C
:100360000D944D1F0D94F5240D9482420D94E60DCD
:100370000D944E250D941D8A0D947E850D94DB0BF6
:100380000D9415430D9465250D94B0220D946F1EA8
:100390000D94340B0D94A0410D9471250D948E880D
:1003A0000D94B5900D94C73D0D94DD900D94611E94
:1003B0000D949C0A0D94A2890D94FC3C0D94E824A4
:1003C0000D94FF240D94F3840D94D6246E616E0079
:1003D000696E66004E414E494E495459494E46CDCC
:1003E000CCCC3D0AD7233C17B7D13877CC2B3295EC
:1003F00095E6241FB14F0A000020410000C84200CA
:10040000401C4620BCBE4CCA1B0E5AAEC59D740093
:10041000407A10F35A00A0724E18090010A5D4E8D3
:100420000000E87648170000E40B54020000CA9A66
:100430003B000000E1F505000080969800000040B8
:10044000420F000000A086010000001027000000FD
:1004500000E803000000006400000000000A000043
:100460000000000100000000002C76D888DC674FF7
:100470000823DFC1DFAE59E1B1B796E5E3E453C627
:100480003AE651997696E8E6C28426EB898C9B621F
:10049000ED407C6FFCEFBC9C9F40F2BAA56FA5F4C9
:1004A00090055A2AF75C936B6CF9676DC11BFCE0F1
:1004B000E40D47FEF520E6B500D0ED902E03009444
:1004C0003577050080841E080000204E0A000000D9
:1004D000C80C333333330F986E12831141EF8D21E3
:1004E00014893BE65516CFFEE6DB18D1844B381B4A
:1004F000F77C1D901DA4BBE424203284725E22810F
:1005000000C9F124ECA1E53D276364696E6F707347
:100510007578585B00256420627974657320777262
:10052000697474656E20746F20454550524F4D209C
:10053000617420616464726573732030782530348F
:1005400078004433202D20526561642F57726974FE
:100550006520454550524F4D0A0020436F756E741B
:1005600020583A20005344207072696E74696E6797
:10057000206279746520004E6F7420696E20666178
:10058000726D206D6F64652E00416374697665201D
:1005900045787472756465723A2000496E76616CB4
:1005A0006964206578747275646572005A204F66BC
:1005B0006673657400556E6B6E6F776E20636F6D3A
:1005C0006D616E643A2022004D32303020496E76E3
:1005D000616C696420657874727564657220007A54
:1005E0005F6D61783A20007A5F6D696E3A2000791C
:1005F0005F6D61783A2000795F6D696E3A2000780E
:100600005F6D61783A20006F70656E005452494703
:10061000474552454400785F6D696E3A2000526547
:10062000706F7274696E6720656E6473746F70208A
:10063000737461747573000053494C454E54004EF9
:100640004F524D414C002553204D4F44453A2050C8
:10065000657263656E7420646F6E653A2025643B35
:10066000207072696E742074696D652072656D61A9
:10067000696E696E6720696E206D696E733A202518
:10068000640A00456E642066696C65206C69737449
:1006900000426567696E2066696C65206C697374D9
:1006A000000A50494E44412074656D706572617452
:1006B0007572653A20252E3166205A207368696666
:1006C0007420286D6D293A20252E3366000A537454
:1006D00065703A2025642F360A000A537465703A13
:1006E0002025642F362028736B6970706564290A91
:1006F00050494E44412074656D7065726174757225
:10070000653A202564205A20736869667420286D34
:100710006D293A300A000A5A45524F3A20252E33A5
:10072000660A0073746172742074656D706572611D
:10073000747572653A20252E31660A0025642020E2
:10074000252E326600255320583A20252E35662066
:10075000593A20252E3566205A3A20252E35660A2C
:1007600000536C6565702E2E2E004E6F7420696EDE
:10077000206661726D206D6F64652E0025640045F2
:10078000303A25642052504D0A50524E303A25647A
:100790002052504D0A00256400442D31202D204563
:1007A0006E646C657373206C6F6F700A00416476C1
:1007B000616E6365204B3D004B206F7574206F6642
:1007C00020616C6C6F7765642072616E67652100D3
:1007D0004D3232302053256900255346696C616DD6
:1007E000656E742073657474696E67733A2044692A
:1007F0007361626C65640A00255346696C616D65BE
:100800006E742073657474696E67733A0A25532099
:1008100020204D3230302044252E32660A002553E8
:10082000526574726163743A20533D4C656E67740F
:100830006820286D6D2920463A537065656420282C
:100840006D6D2F6D29205A3A205A4C696674202804
:100850006D6D290A25532020204D32303720532535
:100860002E32662046252E3266205A252E32660A02
:1008700025535265636F7665723A20533D4578740F
:100880007261206C656E67746820286D6D29204642
:100890003A537065656420286D6D2F6D290A2553C4
:1008A0002020204D3230382053252E326620462518
:1008B0002E32660A25534175746F2D52657472612C
:1008C00063743A20533D3020746F20646973616211
:1008D0006C652C203120746F20696E7465727072A3
:1008E000657420657874727564652D6F6E6C7920FF
:1008F0006D6F7665732061732072657472616374C5
:1009000073206F72207265636F7665726965730A12
:1009100025532020204D323039205325640A0025EC
:10092000535049442068656174626564207365743E
:1009300074696E67733A0A25532020204D33303492
:100940002050252E32662049252E32662044252E41
:1009500032660A0025535049442073657474696EE9
:1009600067733A0A25532020204D3330312050251B
:100970002E32662049252E32662044252E32660A04
:1009800000255353746570732070657220756E690D
:10099000743A0A255320204D39322058252E3266CC
:1009A0002059252E3266205A252E32662045252EC6
:1009B00032660A25535553746570207265736F6CE7
:1009C0007574696F6E3A200A2553204D33353020F7
:1009D00058256420592564205A2564204525640A39
:1009E00025534D6178696D756D206665656472612A
:1009F000746573202D206E6F726D616C20286D6D93
:100A00002F73293A0A255320204D323033205825A0
:100A10002E32662059252E3266205A252E32662027
:100A200045252E32660A25534D6178696D756D2016
:100A3000666565647261746573202D2073746561E9
:100A40006C746820286D6D2F73293A0A2553202075
:100A50004D3230332058252E32662059252E3266ED
:100A6000205A252E32662045252E32660A25534D02
:100A70006178696D756D20616363656C6572617421
:100A8000696F6E202D206E6F726D616C20286D6D08
:100A90002F7332293A0A255320204D323031205805
:100AA000256C752059256C75205A256C75204525B7
:100AB0006C750A25534D6178696D756D20616363AE
:100AC000656C65726174696F6E202D207374656149
:100AD0006C746820286D6D2F7332293A0A255320D3
:100AE000204D3230312058256C752059256C7520E9
:100AF0005A256C752045256C750A2553416363653D
:100B00006C65726174696F6E3A20533D6163636511
:100B10006C65726174696F6E2C20543D72657472DD
:100B200061637420616363656C65726174696F6E83
:100B30000A255320204D3230342053252E32662092
:100B400054252E32660A2553416476616E636564CE
:100B5000207661726961626C65733A20533D4D691C
:100B60006E20666565647261746520286D6D2F73F3
:100B7000292C20543D4D696E2074726176656C207D
:100B8000666565647261746520286D6D2F73292C0C
:100B900020423D6D696E696D756D207365676D6589
:100BA0006E742074696D6520286D73292C20583D62
:100BB0006D6178696D756D205859206A65726B207A
:100BC000286D6D2F73292C20205A3D6D6178696D39
:100BD000756D205A206A65726B20286D6D2F732900
:100BE0002C2020453D6D6178696D756D2045206A2A
:100BF00065726B20286D6D2F73290A255320204DB7
:100C00003230352053252E32662054252E32662070
:100C100042252E32662058252E32662059252E3246
:100C200066205A252E32662045252E32660A255327
:100C3000486F6D65206F666673657420286D6D2939
:100C40003A0A255320204D3230362058252E326660
:100C50002059252E3266205A252E32660A00462556
:100C6000642025640A004D4D55203C3D2027462533
:100C700064202564270A00504944204175746F742C
:100C8000756E652066696E697368656421205075AC
:100C90007420746865206C617374204B702C204B39
:100CA0006920616E64204B6420636F6E7374616EA3
:100CB00074732066726F6D2061626F766520696E55
:100CC000746F20436F6E66696775726174696F6EC9
:100CD0002E6800504944204175746F74756E65200C
:100CE0006661696C6564212074696D656F75740057
:100CF00020403A00543A00423A005049442041759D
:100D0000746F74756E65206661696C65642120542A
:100D1000656D706572617475726520746F6F20689F
:100D200069676800204B643A2000204B693A200034
:100D3000204B703A200020436C617373696320502C
:100D4000494420002054753A2000204B753A200079
:100D5000206D61783A2000206D696E3A2000206491
:100D60003A200020626961733A200020453A002051
:100D70005A3A0020593A0020453A00205A3A0020B9
:100D8000593A00583A00005A30005A3100593000A0
:100D9000593100583000583100456E642073746F2B
:100DA00070732064696167002E0044656C65746926
:100DB0006F6E206661696C65642C2046696C653ACB
:100DC000200046696C652064656C657465643A0052
:100DD0004E6F74205344207072696E74696E6700A0
:100DE0005072696E7420736176656400534420709C
:100DF00072696E7420706175736564000A002F005B
:100E00000A006673656E736F725F726573746F72DA
:100E1000655F7072696E745F616E645F636F6E743C
:100E2000696E75650A002F2F20616374696F6E3AD1
:100E300063616E63656C0043524153485F43414EAA
:100E400043454C0043524153485F5245434F56453A
:100E5000520043524153485F5245434F564552005A
:100E6000222832290054004475706C6963617465EE
:100E700020542D636F64652069676E6F7265642E00
:100E80000A004475706C696361746520542D636F4A
:100E900064652069676E6F7265642E0A00496E761C
:100EA000616C6964205420636F64652E00556E6B1D
:100EB0006E6F776E204D20636F64653A2025732036
:100EC0000A006E6F2076616C696420636F6D6D61DE
:100ED0006E64002C20002C20002C20006E2F61005E
:100EE0002C20002C20002C20006E2F61002F0050A1
:100EF0003A005761697420666F722050494E444130
:100F0000207461726765742074656D7065726174B8
:100F10007572653A004C414E472053454C20464F70
:100F200052434544002228312900303030303030DF
:100F300030302D303030302D303030302D303030BA
:100F4000302D3030303030303030303030300020E4
:100F5000555549443A0031002045585452554445AE
:100F6000525F434F554E543A005072757361206979
:100F700033204D4B335300204D414348494E455F8C
:100F8000545950453A00312E300020626173656437
:100F9000206F6E204D61726C696E204649524D572C
:100FA0004152455F55524C3A68747470733A2F2F12
:100FB0006769746875622E636F6D2F7072757361E7
:100FC00033642F50727573612D4669726D7761724B
:100FD000652050524F544F434F4C5F564552534932
:100FE0004F4E3A004649524D574152455F4E414D92
:100FF000453A50727573612D4669726D77617265FD
:1010000020004D31313320530020423A0020453A30
:1010100000543A0020413A0020503A002042403A21
:101020000020403A00202F003A00205400202F00DA
:1010300020423A00202F006F6B20543A002569208F
:101040006D696E2C2025692073656300496E766199
:101050006C6964204D20636F64653A202573200A13
:1010600000556E6B6E6F776E204720636F64653A34
:10107000202573200A004D65736820626564206C2A
:101080006576656C696E67206E6F74206163746944
:1010900076652E000A002020000A4D656173757286
:1010A000656420706F696E74733A000A5A20736524
:1010B00061726368206865696768743A20002C0073
:1010C0004E756D20582C593A2000206D6963726F5F
:1010D0006E73004578636573736976652062656435
:1010E000206C6576656C696E6720636F72726563EC
:1010F00074696F6E3A2000426564206C6576656C99
:10110000696E67206661696C65642E2053656E7335
:101110006F722074726967676572656420746F6F9F
:1011200020686967682E0A00426564206C657665F0
:101130006C696E67206661696C65642E2053656E0C
:10114000736F7220646973636F6E6E656374656438
:10115000206F72206361626C652062726F6B656ED6
:101160002E0A004732382057300050494E44412063
:1011700070726F62652063616C6962726174696F1D
:101180006E20737461727400473238205730004DFE
:101190003234005345545F43484F505F0053455429
:1011A0005F535445505F005345545F574156455F68
:1011B00000544D435F0043524153485F00507265F5
:1011C0007373206B6E6F6220746F20707265686538
:1011D0006174206E6F7A7A6C6520616E6420636F33
:1011E0006E74696E75652E00506C65617365207054
:1011F0007265737320746865206B6E6F6220746F04
:1012000020756E6C6F61642066696C616D656E74CB
:101210000052656D6F7665206F6C642066696C6145
:101220006D656E7420616E642070726573732074D6
:101230006865206B6E6F6220746F207374617274C6
:10124000206C6F6164696E67206E65772066696CDB
:10125000616D656E742E00616E64207072657373CB
:1012600020746865206B6E6F6200496E73657274DE
:101270002066696C616D656E7400436F6C6F7220DF
:101280006E6F7420636F72726563740046696C617F
:101290006D656E74206E6F74206C6F6164656400A0
:1012A0004368616E67656420636F72726563746C16
:1012B000793F004C6F6164696E6720636F6C6F7279
:1012C000004368616E67652073756363657373219E
:1012D00000506C65617365206F70656E2069646C89
:1012E000657220616E642072656D6F766520666937
:1012F0006C616D656E74206D616E75616C6C792EBC
:10130000005761732066696C616D656E7420756E3F
:101310006C6F6164207375636365737366756C3F8E
:1013200000506C6561736520757067726164652E2D
:10133000004E6577206669726D776172652076650B
:101340007273696F6E20617661696C61626C653A77
:101350000057616974696E6720666F722050494E4C
:1013600044412070726F626520636F6F6C696E67B5
:101370000043726173682064657465637465642EEC
:1013800020526573756D65207072696E743F0043FD
:10139000726173682064657465637465642E0045CA
:1013A000787472756465720043686F6F7365206549
:1013B000787472756465723A0043686F6F73652064
:1013C00066696C616D656E743A004E6F206D6F7664
:1013D000652E005761697420666F7220757365729F
:1013E0002E2E2E00536F6D652070726F626C656DCE
:1013F00020656E636F756E74657265642C205A2D5E
:101400006C6576656C696E6720656E666F72636584
:1014100064202E2E2E00537461626C6520616D6213
:1014200069656E742074656D70657261747572653E
:101430002032312D323643206973206E6565646534
:10144000642061207269676964207374616E64202E
:1014500069732072657175697265642E00506C65E0
:101460006173652072756E2058595A2063616C69EA
:1014700062726174696F6E2066697273742E007394
:10148000746172740A006164635F696E69740A0052
:1014900000202D20496E76616C6964206578747235
:1014A00075646572206E756D6265722021001B5B2C
:1014B000324A1B5B313B31484F726967696E616C20
:1014C0002050727573612069331B5B323B33485087
:1014D000727573612052657365617263680046615D
:1014E00063746F7279205245534554004449534107
:1014F000424C45440A00454E41424C454400465347
:10150000656E736F722025530A004A756C20203176
:10151000203230313900436F6D70696C65643A2058
:1015200000286E6F6E652C2064656661756C742092
:10153000636F6E66696729004A756C20203120321E
:101540003031392032303A34323A31320020332EC1
:10155000372E322D323336330A002055706C6F61CE
:101560006420696E2070726F677265737300205A11
:101570003A0020593A0020583A0043524153485FFC
:1015800044455445435445445859004352415348F7
:101590005F444554454354454459004352415348E0
:1015A0005F444554454354454458004D3239001B6F
:1015B0005B324A1B5B303B304845787465726E6124
:1015C0006C2053504920666C6173681B5B313B3063
:1015D00048573235583230434C206973206E6F744F
:1015E000207265732D1B5B323B3048706F6E6469EF
:1015F0006E672E204C616E67756167651B5B333BC0
:10160000304873776974636820756E617661696CC0
:1016100061626C652E004372617368446574656332
:10162000742044495341424C4544004372617368FD
:1016300044657465637420454E41424C4544210025
:10164000573235583230434C206E6F7420726573B8
:10165000706F6E64696E672E0A002020506C616E98
:101660006E657242756666657242797465733A207A
:10167000002046726565204D656D6F72793A2000D5
:10168000207C20417574686F723A2000204C617391
:101690007420557064617465643A200020536F664D
:1016A00074776172652052657365740020576174A8
:1016B0006368646F67205265736574002042726FBF
:1016C000776E206F757420526573657400204578BD
:1016D0007465726E616C20526573657400506F772B
:1016E00065725570006572726F72207772697469E5
:1016F0006E6720746F2066696C6500656E64737434
:101700006F7073206869743A2000446F6E652073AF
:101710006176696E672066696C652E006F6B004D9F
:101720004B3353206669726D77617265206465740E
:101730006563746564206F6E204D4B332070726951
:101740006E746572005072757361206933204D4B61
:101750003353204F4B2E00426C61636B6F757420C6
:101760006F636375727265642E205265636F766570
:1017700072207072696E743F0053656C6674657395
:10178000742077696C6C2062652072756E20746FAE
:101790002063616C69627261746520616363757254
:1017A0006174652073656E736F726C6573732072FC
:1017B00065686F6D696E672E005468657265206993
:1017C00073207374696C6C2061206E65656420748D
:1017D0006F206D616B65205A2063616C6962726174
:1017E00074696F6E2E20506C6561736520666F6C36
:1017F0006C6F7720746865206D616E75616C2C204C
:1018000063686170746572204669727374207374C2
:101810006570732C2073656374696F6E2043616C0F
:101820006962726174696F6E20666C6F772E00500A
:1018300072696E74657220686173206E6F742062C5
:1018400065656E2063616C6962726174656420799C
:1018500065742E20506C6561736520666F6C6C6FCB
:101860007720746865206D616E75616C2C206368EB
:101870006170746572204669727374207374657048
:10188000732C2073656374696F6E2043616C6962A9
:10189000726174696F6E20666C6F772E004F6C6496
:1018A0002073657474696E677320666F756E642E3D
:1018B0002044656661756C74205049442C20457342
:1018C00074657073206574632E2077696C6C206278
:1018D00065207365742E005761726E696E673A20D9
:1018E000626F7468207072696E74657220747970AA
:1018F0006520616E64206D6F74686572626F6172DD
:10190000642074797065206368616E6765642E0079
:101910005761726E696E673A207072696E74657293
:101920002074797065206368616E6765642E005766
:1019300061726E696E673A206D6F74686572626F6E
:101940006172642074797065206368616E67656494
:101950002E0058595A2063616C6962726174696F14
:101960006E20616C6C2072696768742E20536B6501
:10197000772077696C6C20626520636F7272656393
:10198000746564206175746F6D61746963616C6CFA
:10199000792E0058595A2063616C696272617469CA
:1019A0006F6E20616C6C2072696768742E20582FEE
:1019B0005920617865732061726520736C6967686E
:1019C000746C7920736B657765642E20476F6F6444
:1019D000206A6F62210058595A2063616C696272F3
:1019E0006174696F6E206F6B2E20582F59206178BB
:1019F0006573206172652070657270656E646963DD
:101A0000756C61722E20436F6E67726174756C61C4
:101A100074696F6E73210058595A2063616C696252
:101A2000726174696F6E206661696C65642E205204
:101A3000696768742066726F6E742063616C696296
:101A4000726174696F6E20706F696E74206E6F744E
:101A500020726561636861626C652E0058595A2076
:101A600063616C6962726174696F6E206661696C32
:101A700065642E2046726F6E742063616C696272B9
:101A80006174696F6E20706F696E7473206E6F740D
:101A900020726561636861626C652E0058595A2036
:101AA00063616C6962726174696F6E206661696CF2
:101AB00065642E20506C6561736520636F6E73756D
:101AC0006C7420746865206D616E75616C2E0058B1
:101AD000595A2063616C6962726174696F6E206328
:101AE0006F6D70726F6D697365642E2052696768DF
:101AF000742066726F6E742063616C6962726174C7
:101B0000696F6E20706F696E74206E6F74207265DD
:101B100061636861626C652E0058595A2063616C7C
:101B20006962726174696F6E20636F6D70726F6D40
:101B3000697365642E2046726F6E742063616C69F0
:101B400062726174696F6E20706F696E7473206E5B
:101B50006F7420726561636861626C652E0058590C
:101B60005A2063616C6962726174696F6E2066618C
:101B7000696C65642E204265642063616C696272E1
:101B80006174696F6E20706F696E74207761732065
:101B90006E6F7420666F756E642E00506C65617395
:101BA0006520706C61636520737465656C20736873
:101BB000656574206F6E20686561746265642E00CF
:101BC00044697374616E6365206265747765656EE0
:101BD00020746970206F6620746865206E6F7A7A51
:101BE0006C6520616E642074686520626564207392
:101BF00075726661636520686173206E6F74206220
:101C000065656E20736574207965742E20506C654F
:101C100061736520666F6C6C6F7720746865206DEA
:101C2000616E75616C2C206368617074657220460A
:101C3000697273742073746570732C207365637498
:101C4000696F6E204669727374206C6179657220C9
:101C500063616C6962726174696F6E2E00506C61B1
:101C600063652061207368656574206F662070610C
:101C700070657220756E64657220746865206E6F81
:101C80007A7A6C6520647572696E67207468652065
:101C900063616C6962726174696F6E206F66206641
:101CA00069727374203420706F696E74732E2049CA
:101CB0006620746865206E6F7A7A6C652063617443
:101CC00063686573207468652070617065722C208C
:101CD000706F776572206F66662074686520707219
:101CE000696E74657220696D6D6564696174656C97
:101CF000792E00506C656173652072656D6F766535
:101D000020737465656C2073686565742066726FF6
:101D10006D20686561746265642E00497320737478
:101D200065656C207368656574206F6E20686561F9
:101D3000746265643F00206F6620340053656172F1
:101D40006368696E67206265642063616C696272B2
:101D50006174696F6E20706F696E7400206F662009
:101D600039004D6561737572696E672072656665CD
:101D700072656E636520686569676874206F6620A8
:101D800063616C6962726174696F6E20706F696EF5
:101D90007400506C6561736520636C65616E2074BE
:101DA0006865206E6F7A7A6C6520666F7220636159
:101DB0006C6962726174696F6E2E20436C69636B2B
:101DC000207768656E20646F6E652E004175746FB4
:101DD00020686F6D650078797A63616C5F6D65610D
:101DE00073737572655F656E7465720A0078797ACF
:101DF00063616C5F73706972616C382063783D2534
:101E0000642063793D2564207A303D256420647A1E
:101E10003D2564207261646975733D2564206164A9
:101E20003D25640A0078797A63616C5F736561723D
:101E300063685A206E6F207369676E616C0A207840
:101E40003D256C6420793D256C64207A3D256C64C9
:101E50000A00204F4E2D5349474E414C20617420BB
:101E6000783D256420793D2564207A3D25642061F4
:101E7000643D25640A0078797A63616C5F736561FB
:101E80007263685A20783D256C6420793D256C6426
:101E9000207A3D256C640A000A00253032780078EB
:101EA000797A63616C5F7363616E5F706978656C8A
:101EB000735F33327833322063783D256420637951
:101EC0003D2564206D696E5F7A3D2564206D6178E3
:101ED0005F7A3D25640A00202532642025640A00CB
:101EE0000A002530327800206D696E3D2564206D32
:101EF00061783D2564206469663D25640A006D6152
:101F0000785F633D253264206D61785F6C3D2564A8
:101F10000A006D61785F633D2564206D61785F72B2
:101F20003D2564206D61785F6D617463683D256453
:101F30000A0020783D256420793D2564207A3D25DE
:101F4000640A00207061747465726E20666F756E2D
:101F5000642061742025642025640A000000F000DC
:101F6000F801FC03FE07FE07FE07FE07FC03F8016D
:101F7000F000000073697A656F6628746F74616C95
:101F8000293D25640A0073697A656F6628626C6F63
:101F9000636B5F627566666572293D25640A007829
:101FA000797A63616C5F6D656173737572655F6C7F
:101FB000656176650A00706F696E743D25642078EE
:101FC0003D256420793D2564207A3D25640A00582A
:101FD000025802584D584DB004F055F055B00478F1
:101FE000797A63616C5F66696E645F6265645F697C
:101FF0006E64756374696F6E5F73656E736F725F25
:10200000706F696E745F787920783D256C642079F3
:102010003D256C64207A3D256C640A00203C20003C
:102020005741524E494E473A2046726F6E742070A7
:102030006F696E74206E6F7420726561636861628F
:102040006C652E205920636F6F7264696E617465D0
:102050003A0000000040410000C04000005C430026
:1020600000C04000005C43000046430000404100C7
:10207000004643497465726174696F6E3A2000438B
:10208000616C6962726174696F6E206661696C650A
:10209000642120436865636B2074686520617865FE
:1020A0007320616E642072756E20616761696E2EA7
:1020B000005553415254322072782046756C6C2181
:1020C00021210A0053657474696E67732053746F1D
:1020D0007265640053746F7265642073657474690B
:1020E0006E67732072657472696576656400486115
:1020F0007264636F6465642044656661756C742006
:1021000053657474696E6773204C6F616465640015
:10211000563200000000C8420000C8420000C84318
:1021200000008C4300004843000048430000404149
:102130000000F042E8030000E8030000C8000000CF
:102140008813000000409C4400409C4400000000B4
:1021500000000000204E000000002041000020414F
:10216000CDCCCC3E0000204000000000000000006C
:1021700000000000CDCCCC3E3D0A8141FF08433E2B
:10218000B099AB438F42FC42E65A343F4C62B045B3
:102190000000000000404000003442000000000049
:1021A00000000000000041000000E03F0000C842C5
:1021B0000000C842000040410000F042C00300009F
:1021C000C0030000C8000000881300001010102099
:1021D000436F6E74696E7565207769746820616EEF
:1021E0006F7468657220626F7764656E3F002500CA
:1021F00020202020202000202020202020004552C8
:102200004153494E4720616C6C2064617461004603
:102210006163746F727920524553455400473120F1
:1022200058323131205930205A2575004D36303022
:10223000005052555341206673656E736F725F7222
:1022400065636F766572006673656E736F725F7536
:102250007064617465202D204D3630300A0020579F
:102260003A0020453A00543A005A206C69766520BD
:1022700061646A757374206F7574206F6620726173
:102280006E67652E2053657474696E6720746F20C5
:10229000302E20436C69636B20746F20636F6E7403
:1022A000696E75652E005A206C6976652061646AD6
:1022B000757374206F7574206F662072616E676528
:1022C0002E2053657474696E6720746F203000206F
:1022D000423A0020453A00543A00494E54340048EE
:1022E000656174696E672064697361626C656420FE
:1022F0006279207361666574792074696D65722EE8
:1023000000004B494C4C45442E20005072696E74BD
:1023100065722068616C7465642E206B696C6C2832
:10232000292063616C6C656421004B494C4C3A2058
:1023300025640A004D31303420496E76616C696441
:1023400020657874727564657220004D31303520D7
:10235000496E76616C696420657874727564657223
:1023600020004D31303920496E76616C69642065FA
:102370007874727564657220004D32313820496E70
:1023800076616C696420657874727564657220008A
:102390004D32323120496E76616C69642065787403
:1023A0007275646572200055564C4F202D20656E65
:1023B000642025640A007374707325640A006F6BCF
:1023C0000A0073746172740A004D4D5532206669BB
:1023D000726D776172652076657273696F6E2069C0
:1023E0006E76616C69642E205265717569726564E0
:1023F0002076657273696F6E3A206275696C64202D
:102400006E756D626572202564206F722068696741
:102410006865722E006673656E736F725F73746F9A
:10242000705F616E645F736176655F7072696E7410
:102430000A004D4D55203D3E20276F6B270A004D69
:102440004D55203D3E20276F6B270A002564004D27
:102450004D55203D3E20276F6B272C2072657375EC
:102460006D65207072696E740A004D4D552072655D
:1024700074727920617474656D7074206E722E2090
:1024800025640A004D4D55203D3E20276F6B270ADD
:1024900000410A004D4D55203C3D202741270A00B0
:1024A0004D363030004D363030204155544F0050BD
:1024B00052555341206673656E736F725F72656328
:1024C0006F766572002568687500410A004D4D55AC
:1024D000203C3D202741270A0050300A004D25644A
:1024E0000A004D4D55203C3D20274D2564270A000C
:1024F00057300A004D4D55203C3D20275730270AC4
:102500000053330A004D4D55203C3D2027533327BF
:102510000A0052300A004D4D55203C3D20275230D4
:10252000270A004B25640A004D4D55203C3D2027CD
:102530004B2564270A004525640A004D4D55203C73
:102540003D2027452564270A0055300A004D4D558A
:10255000203C3D20275530270A0043300A004D4DCE
:1025600055203C3D20274330270A004C25640A00B3
:102570004D4D55203C3D20274C2564270A0054250D
:10258000640A004D4D55203C3D2027542564270A00
:10259000004D4D55202D20454E41424C45440025CF
:1025A0006868750050300A004D310A004D4D5520C5
:1025B0003C3D20274D31270050300A004D4D55201D
:1025C00076657273696F6E2076616C6964004D4D3B
:1025D00055203D3E202725646F6B270A0025750096
:1025E00053320A004D4D55203C3D202753322700E1
:1025F0004D4D55203D3E202725646F6B270A002551
:1026000075004D4D55206E6F7420726573706F6E3E
:1026100064696E67202D2044495341424C45440073
:1026200053310A004D4D55203C3D202753312700A2
:102630004D4D55203D3E202773746172742700650F
:1026400072726F723A20756E6B6E6F776E206D6F5F
:1026500076650A006E6F206D6F76650A00542D63F3
:102660006F64650A00756E6C6F61640A006C6F615F
:10267000640A006D6D755F6765745F726573706F76
:102680006E7365202D20626567696E206D6F7665BB
:102690003A20006D6D755F6765745F726573706F6A
:1026A0006E736528292072657475726E696E673A5B
:1026B0002025640A00556E6C6F6164696E67206640
:1026C000696E697368656420320A00556E6C6F61CB
:1026D0006420320A00556E6C6F6164696E67206613
:1026E000696E697368656420310A00556E6C6F61AC
:1026F0006420310A004D4D5520737461727473204B
:10270000726573706F6E64696E670A004D4D552077
:102710006E6F7420726573706F6E64696E670A0005
:1027200046696C616D656E74206F7574206F6620EC
:1027300072616E6765202564200A000000803F55A5
:102740005585410000803F0000C841000000405511
:102750005505420000C03F0000484200002040559F
:10276000558542000070C1ABAAA642000060C100BE
:1027700000A0410000C0C00000204100002041AB8B
:10278000AA3A41000020C15555D540000048C25525
:102790005505424D373031204534004D373031201A
:1027A0004533004D373031204532004D3730312030
:1027B0004531004D3730312045300046696C616D40
:1027C000656E74206E72206F7574206F6620726162
:1027D0006E676521004164646974696F6E616C2085
:1027E0006C6F616420617474656D7074206E722EFC
:1027F0002025640A00506C65617365207570646102
:102800007465206669726D7761726520696E2079E2
:102810006F7572204D4D55322E2057616974696E67
:102820006720666F722072657365742E004D4D557A
:10283000204F4B2E20526573756D696E672E2E2EBC
:10284000004D4D55204F4B2E20526573756D696EAE
:102850006720706F736974696F6E2E2E2E004D4D58
:1028600055204F4B2E20526573756D696E6720742D
:10287000656D70657261747572652E2E2E004669E5
:10288000782074686520697373756520616E6420B3
:102890007468656E20707265737320627574746FEE
:1028A0006E206F6E204D4D5520756E69742E005050
:1028B0007265737320746865206B6E6F6220746F2D
:1028C00020726573756D65206E6F7A7A6C65207401
:1028D000656D70657261747572652E004D4D552081
:1028E0006E65656473207573657220617474656EBE
:1028F00074696F6E2E00506C656173652072656D32
:102900006F76652066696C616D656E7420616E64BA
:10291000207468656E20707265737320746865201A
:102920006B6E6F622E00456A656374696E67206620
:10293000696C616D656E740025632533642F2564B1
:102940002563004D3234004D323320257300052EAF
:102950002E00457874722066616E20737065656420
:102960003A202564200A005072696E742066616EF8
:102970002073706565643A202564200A00546573ED
:102980007420323A0A00457874722066616E2073B2
:10299000706565643A202564200A005072696E747F
:1029A0002066616E2073706565643A202564200A94
:1029B000005465737420313A0A006C63645F736578
:1029C0006C66636865636B5F617869732025642C4E
:1029D0002025640A004D3834004731205A31352013
:1029E00046313030300047323820570046696C6538
:1029F00020696E636F6D706C6574652E20436F6E19
:102A000074696E756520616E797761793F00426106
:102A1000636B004D61696E0057616974696E672070
:102A2000666F72206E6F7A7A6C6520616E642062C8
:102A3000656420636F6F6C696E670053656C662018
:102A400074657374204F4B0053656C662074657316
:102A5000742073746172742020004D4D55206C6F8A
:102A60006164206661696C65642020202020007705
:102A70003235783230636C5F63666D0A00773235C9
:102A8000783230636C5F656E7465720A0020746F13
:102A90006F206C6F6E6720657874727573696F6EE6
:102AA0002070726576656E7465640020636F6C6477
:102AB00020657874727573696F6E207072657665C3
:102AC0006E74656400544D4320445249564552206B
:102AD0004F56455254454D500025632533642F25EC
:102AE000642563005A25362E326620005A202020A5
:102AF0002D2D2D200025632533642525002D2D2D1A
:102B00000025336868640025335325337325250079
:102B10005553420020202000205344002025753EBC
:102B2000257500203F3E257500204625750020466E
:102B30003F0020463020200025632D2D3A2D2D20EA
:102B400020002563253375682025632563002563F0
:102B5000253032753A25303275256325630072655C
:102B600073756C742076616C75653A2025640A0073
:102B700020693D25326420636E743D2532642076E1
:102B8000616C3D2532640A00636C75737465727301
:102B90003A0A0020693D25326420737465703D2532
:102BA00032640A00736F727465642073616D706CB7
:102BB00065733A0A003A200020202020202020209F
:102BC000202020202020202020202000203A20002B
:102BD00020202020202020202020202020202020F5
:102BE0002020202000202020202020202020202005
:102BF00020200025730050494E44412048656174EF
:102C0000696E670054656D702E2063616C2E202004
:102C100020202020202020200043616C6962726106
:102C200074696F6E20646F6E650043616C696272D7
:102C30006174696E67205A0042656420646F6E6536
:102C4000004265642048656174696E67004865618B
:102C500074696E6720646F6E652E004865617469E3
:102C60006E670043757272656E74005573656420FB
:102C7000647572696E67207072696E7400504944A1
:102C80002063616C2E2066696E697368656400500C
:102C900049442063616C2E20202020202020202009
:102CA000202000506C656173652077616974004D68
:102CB000313137204669727374206C6179657220F6
:102CC00063616C2E005072696E742070617573655B
:102CD0006400496E76616C696420504944206361E8
:102CE0006C2E20726573756C74732E204E6F742079
:102CF00073746F72656420746F20454550524F4D58
:102D00002E004D353030004731205A3135204631C4
:102D1000353030004739310047312058353020599F
:102D20003139302045302046373030300047393097
:102D3000004D373032004D3730322043004D3730B0
:102D4000322055004D373032004D373032204300AD
:102D50004731205A3135204631353030004739313E
:102D60000047312058353020593139302045302046
:102D70004637303030004D383300473930004D3859
:102D800034004D313034205330004D3834004D374D
:102D9000303220430047312058313020593138300B
:102DA000204634303030004731205A31302046310F
:102DB0003330302E303030004D313430205330003D
:102DC0004D31303420533000473120452D302E30E6
:102DD000373530302046323130302E3030303030E0
:102DE000004D3130370047312058353020593535C6
:102DF0002045332E363237373300473120583230B2
:102E000030205935352045302E3439333836004797
:102E1000312058323030205937352045332E363264
:102E20003737330047312058353020593735204562
:102E3000302E343933383600473120583530205958
:102E400039352045332E3632373733004731205855
:102E5000323030205939352045302E343933383628
:102E60000047312058323030205931313520453338
:102E70002E3632373733004731205835302059311C
:102E800031352045302E343933383600473120581B
:102E9000353020593133352045332E3632373733EC
:102EA00000473120583230302059313335204530F9
:102EB0002E363631373400473120583230302059E1
:102EC0003135352045322E36323737330047312001
:102ED00058313030205931353520453200473120C6
:102EE00058373520593135352045322E3500473198
:102EF000204631303830004731205A302E313530BD
:102F00002046373230302E303030004731205835AF
:102F100030205931353500473120463430303000CB
:102F20004D323034205331303030004731205A3563
:102F30002046373230302E30303000473120452D9A
:102F4000312E35303030302046323130302E303076
:102F5000303030004D3833004739300047323100CF
:102F60004739322045302E3000473120583130303B
:102F70002E30204531322E352046313030302E3043
:102F8000004731205836302E302045392E3020462B
:102F9000313030302E300047312058352E3020452A
:102FA000342E302046313030302E30004731205A18
:102FB000302E32302046313030302E300047312034
:102FC0005835352E30204532352046313430302EBC
:102FD0003000473120592D322E30204631303030EC
:102FE0002E3000473120583234302E3020453235D3
:102FF0002E30202046323230302E300047393220F9
:1030000045302E30004731205A302E3320463130A3
:1030100030302E30004731205835352E302045389D
:103020002E302046323030302E3000473120583597
:103030002E30204533322E302046313830302E307D
:10304000004731205835352E30204533322E302080
:1030500046313037332E30004731205A302E34205D
:1030600046313030302E3000473120592D332E304C
:103070002046313030302E30004D38330047393261
:103080002045302E3000473238004D313039205342
:10309000323135004D31393020533630004D313426
:1030A0003020533630004D3130342053323135002A
:1030B0004D313037004D373032004D373031004D13
:1030C000373032004D37303100464C4558202D20E6
:1030D000203234302F35300050502020202D202039
:1030E0003235342F3130300048495053202D2020C4
:1030F0003232302F3130300041425320202D2020F9
:103100003235352F3130300050455420202D2020CD
:103110003233302F383500504C4120202D202032C2
:1031200031352F363000252D31322E313253252BBB
:10313000382E31660045787472756465723A006D98
:103140006D000059005800583A00593A005A3A00A8
:103150002563252D31332E313353252B352E336600
:1031600000746F20756E6C6F61642066696C616DB0
:10317000656E7400746F206C6F61642066696C61A9
:103180006D656E7400507265737320746865206B92
:103190006E6F62003E43616E63656C0050726568DD
:1031A000656174696E6720746F2063757400507276
:1031B0006568656174696E6720746F20656A656310
:1031C000740050726568656174696E6720746F2061
:1031D000756E6C6F61640050726568656174696ECC
:1031E0006720746F206C6F61640050726568656160
:1031F0007420746865206E6F7A7A6C652100455280
:10320000524F523A0046696C616D656E7420657864
:1032100074727564696E672026207769746820630C
:103220006F727265637420636F6C6F723F004175DB
:10323000746F6C6F6164696E672066696C616D653F
:103240006E74206973206163746976652C206A75D9
:10325000737420707265737320746865206B6E6F71
:103260006220616E6420696E736572742066696C99
:10327000616D656E742E2E2E00546F74616C20701B
:1032800072696E742074696D6500546F74616C208E
:1032900066696C616D656E74005072696E7420743D
:1032A000696D650046696C616D656E742075736546
:1032B00064005269676874004C6566740059206444
:1032C000697374616E63652066726F6D206D696EDF
:1032D0000053657665726520736B657700536C6982
:1032E00067687420736B6577004D656173757265EF
:1032F0006420736B6577005B303B305D20706F69D5
:103300006E74206F66667365740041646A757374C9
:10331000696E67205A3A00526573657400526561A0
:10332000722073696465205B756D5D0046726F6E17
:103330007420736964655B756D5D005269676874BC
:1033400020736964655B756D5D004C656674207300
:10335000696465205B756D5D005365742074656DEF
:1033600070657261747572653A001B5B324A255351
:10337000203A1B5B313B394825382E3266206D0AD6
:103380002553203A0A25376C6464203A2532686850
:103390006468203A253032686864206D001B5B3217
:1033A0004A25533A1B5B313B364825382E32666D31
:1033B000200A2553203A1B5B333B3848253264688A
:1033C00020253032646D2025303264730025362E7E
:1033D00032666D6D004E2F41001B5B303B3048253F
:1033E000533A0A25530A25533A0A25533A001B5BE0
:1033F000303B3135484E2F41001B5B303B31354867
:1034000025342E326601001B5B303B304825533A91
:103410000A25530A25533A202025352E3266010A03
:1034200025533A202025352E3266010046616C7303
:10343000652074726967676572696E6700537761AA
:10344000707065640046726F6E742F6C65667420D0
:1034500066616E7300417869730041786973206C0E
:10346000656E677468004C6F6F73652070756C6C67
:10347000657900456E6473746F70206E6F74206898
:10348000697400456E6473746F70004D6F746F7271
:1034900000456E6473746F707300576972696E676C
:1034A000206572726F7200426564202F204865614A
:1034B000746572004E6F7420636F6E6E6563746521
:1034C00064004865617465722F546865726D697334
:1034D000746F7200506C6561736520636865636B1F
:1034E000203A0053656C6674657374206572726F60
:1034F0007220210046696C616D656E742073656E83
:10350000736F72005072696E742066616E3A004586
:10351000787472756465722066616E3A0043616CFE
:103520006962726174696E6720686F6D65005365CA
:103530006C6674657374206661696C656420200034
:10354000416C6C20636F72726563742020202020B0
:103550002000436865636B696E672073656E736FE7
:1035600072732000436865636B696E6720686F74CF
:10357000656E64202000436865636B696E67206236
:103580006564202020202000436865636B696E67B6
:10359000205A2061786973202000436865636B6955
:1035A0006E67205920617869732020004368656345
:1035B0006B696E672058206178697320200043682A
:1035C00065636B696E6720656E6473746F707300FA
:1035D0004572726F72202D20737461746963206D5F
:1035E000656D6F727920686173206265656E206F0A
:1035F0007665727772697474656E004361726420D7
:1036000072656D6F766564002D2D2D2D2D2D2D2D60
:103610002D2D2D2D2D2D2D2D2D2D2D2D000000008E
:103620000000110A045052555341334446570020BC
:1036300079303D25640A002078303D25640A004F2A
:103640004B0A004552524F522061643D25640A00E6
:103650002020207A303D25640A00207A303D256400
:103660000A002079303D25640A002078303D256429
:103670000A0078797A63616C5F66696E645F706F67
:10368000696E745F63656E746572320A00000021B2
:1036900000240027002A002D003000330001010023
:1036A00000040107010A0100002000230026002970
:1036B000002C002F00320000010000030106010968
:1036C0000100000A0B02090C0D0E0807030401009B
:1036D00000000000000000000000000000000000EA
:1036E00000000000000000000000000000121110A7
:1036F00000000000000000000000000000000000CA
:1037000000000000000000000000000000000000B9
:1037100000000000000000000E1315110E00000054
:1037200004120912040000001C1F11111F000000E8
:1037300006191803130C00040E1F041C00000004DB
:103740000A0A0A0A11110E001F1511151F000000A8
:103750000103161C0800000000110A04110A040CE1
:1037600012120C000000002563252D31382E31384F
:10377000532563002563252D2E3136532000256304
:10378000252E3135533A257325336400202020201F
:103790002020202020202020202020202020202029
:1037A000002563252D31332E31335325362E3673C4
:1037B00000457872656D65207370616E206F6620BC
:1037C000746865205A2076616C75657321004265C6
:1037D00064206C6576656C696E67206661696C65EE
:1037E000642E2053656E736F72206469646E74205A
:1037F000747269676765722E20446562726973200E
:103800006F6E206E6F7A7A6C653F205761697469BC
:103810006E6720666F722072657365742E002000DB
:103820003E003E0020003E003E0054656D70657213
:1038300061747572652063616C6962726174696F2D
:103840006E206661696C65642E20436F6E74696ECC
:1038500075652077697468207072657373696E6727
:1038600020746865206B6E6F622E0054656D706504
:103870007261747572652063616C696272617469EA
:103880006F6E20646F6E652E20436F6E74696E7567
:10389000652077697468207072657373696E67203C
:1038A000746865206B6E6F622E0054656D70657272
:1038B00061747572652063616C6962726174696FAD
:1038C0006E206661696C65640054656D7065726137
:1038D000747572652063616C6962726174696F6E80
:1038E0002069732066696E697368656420616E641F
:1038F000206163746976652E2054656D702E206397
:10390000616C6962726174696F6E2063616E2062BE
:10391000652064697361626C656420696E206D6501
:103920006E752053657474696E67732D3E54656DB2
:10393000702E2063616C2E004E2F4100202030003D
:103940002020310049523A0046494E44413A005045
:10395000494E44413A0053656E736F72207374612F
:103960007465004578747275646572004D6F766594
:10397000205A004D6F76652059004D6F76652058AE
:10398000001B5B324A43726173682064657465632F
:1039900074696F6E2063616E1B5B313B30486265FA
:1039A000207475726E6564206F6E206F6E6C792066
:1039B000696E1B5B323B30484E6F726D616C206DDF
:1039C0006F6465001B5B324A5741524E494E473A7D
:1039D0001B5B313B304843726173682064657465DA
:1039E0006374696F6E1B5B323B304864697361625C
:1039F0006C656420696E1B5B333B304853746561B2
:103A00006C7468206D6F6465004175746F6C6F61D4
:103A100064696E672066696C616D656E742061769D
:103A200061696C61626C65206F6E6C792077686586
:103A30006E2066696C616D656E742073656E736F60
:103A400072206973207475726E6564206F6E2E2EFD
:103A50002E004552524F523A2046696C616D656E98
:103A6000742073656E736F72206973206E6F74209B
:103A7000726573706F6E64696E672C20706C65611F
:103A8000736520636865636B20636F6E6E65637436
:103A9000696F6E2E004D6F6465206368616E6765A7
:103AA00020696E2070726F6772657373202E2E2EE0
:103AB0000053442063617264206F6B006F70656E09
:103AC000526F6F74206661696C656400766F6C7507
:103AD0006D652E696E6974206661696C656400535A
:103AE0004420696E6974206661696C00577269745C
:103AF000696E6720746F2066696C653A20004669BC
:103B00006C652073656C6563746564002053697A25
:103B1000653A200046696C65206F70656E65643A91
:103B200020006F70656E206661696C65642C2046AC
:103B3000696C653A20001F1F1F1F1F1F1F1F2E00CB
:103B40002E004E6F772066726573682066696C651B
:103B50003A20004E6F7720646F696E672066696C4B
:103B6000653A20002220706F730022207061726518
:103B70006E743A2200535542524F5554494E4520D7
:103B800043414C4C207461726765743A220065634E
:103B9000686F3A00747279696E6720746F20636190
:103BA0006C6C207375622D67636F64652066696C49
:103BB0006573207769746820746F6F206D616E790A
:103BC000206C6576656C732E204D4158206C6576AF
:103BD000656C2069733A004572726F723A002E006C
:103BE000536F7274696E672066696C657300536FFA
:103BF0006D652066696C65732077696C6C206E6FEB
:103C00007420626520736F727465642E204D617834
:103C10002E204E6F2E206F662066696C65732069BA
:103C20006E203120666F6C64657220666F7220733F
:103C30006F7274696E67206973203130302E0047CF
:103C40003830004D3435004D3435205A0047373672
:103C50000057697A6172642073746174653A202533
:103C6000640044697361626C65206661726D206DE9
:103C70006F6465004661726D206E756D62657200DD
:103C80004D3834004D34340047323820570047391E
:103C9000390044697361626C65206661726D206DE4
:103CA0006F64653F0043616C6962726174650050C6
:103CB0006C65617365206C6F616420504C412066B7
:103CC000696C616D656E742066697273742E00494B
:103CD0007320504C412066696C616D656E74206C78
:103CE0006F616465643F0043616E63656C004669A3
:103CF0006C616D656E740053656C65637420504C27
:103D0000412066696C616D656E743A0052756E6E25
:103D1000696E672057697A6172642077696C6C20DC
:103D200064656C6574652063757272656E7420637A
:103D3000616C6962726174696F6E20726573756C13
:103D4000747320616E642073746172742066726F84
:103D50006D2074686520626567696E6E696E672E96
:103D600020436F6E74696E75653F005072656865BB
:103D70006174696E67206E6F7A7A6C652E20506C64
:103D80006561736520776169742E00456A656374A7
:103D900000556E6C6F61640055736520756E6C6FB5
:103DA000616420746F2072656D6F76652066696C42
:103DB000616D656E742031206966206974207072AF
:103DC0006F747275646573206F75747369646520B0
:103DD0006F66207468652072656172204D4D5520B4
:103DE000747562652E2055736520656A656374205D
:103DF00069662069742069732068696464656E204F
:103E0000696E20747562652E004C6F6164696E671F
:103E10002066696C616D656E7400506C65617365D8
:103E200020696E7365727420504C412066696C6124
:103E30006D656E7420746F20746865206578747287
:103E4000756465722C207468656E2070726573737A
:103E5000206B6E6F6220746F206C6F6164206974D8
:103E60002E00506C6561736520696E7365727420F5
:103E7000504C412066696C616D656E7420746F20D2
:103E80007468652066697273742074756265206F4A
:103E900066204D4D552C207468656E2070726573D8
:103EA0007320746865206B6E6F6220746F206C6F76
:103EB00061642069742E00596F752063616E206102
:103EC0006C7761797320726573756D6520746865B0
:103ED0002057697A6172642066726F6D2043616C4D
:103EE0006962726174696F6E202D3E2057697A6134
:103EF00072642E00506C6561736520636865636B46
:103F0000206F75722068616E64626F6F6B20616EE6
:103F10006420666978207468652070726F626C65D1
:103F20006D2E205468656E20726573756D65207402
:103F300068652057697A61726420627920726562CF
:103F40006F6F74696E6720746865207072696E7433
:103F500065722E00416C6C20697320646F6E652E53
:103F6000204861707079207072696E74696E672183
:103F700000506C6561736520636C65616E206865D7
:103F8000617462656420616E64207468656E20707F
:103F90007265737320746865206B6E6F622E0044C7
:103FA0006F20796F752077616E7420746F20726551
:103FB00070656174206C6173742073746570207413
:103FC0006F20726561646A757374206469737461CB
:103FD0006E6365206265747765656E206E6F7A7AB0
:103FE0006C6520616E6420686561746265643F0081
:103FF000492077696C6C20737461727420746F202F
:104000007072696E74206C696E6520616E642079CF
:104010006F752077696C6C206772616475616C6C78
:1040200079206C6F77657220746865206E6F7A7A7C
:104030006C6520627920726F746174696E67207498
:104040006865206B6E6F622C20756E74696C2079C8
:104050006F75207265616368206F7074696D616C43
:10406000206865696768742E20436865636B2074F7
:10407000686520706963747572657320696E206F5E
:1040800075722068616E64626F6F6B20696E206369
:104090006861707465722043616C696272617469F1
:1040A0006F6E2E004E6F7720492077696C6C20630D
:1040B000616C6962726174652064697374616E63B6
:1040C00065206265747765656E20746970206F661F
:1040D00020746865206E6F7A7A6C6520616E64204A
:1040E0006865617462656420737572666163652ECC
:1040F00000497320697420504C412066696C616DE1
:10410000656E743F0053656C656374206E6F7A7AD8
:104110006C6520707265686561742074656D70658A
:10412000726174757265207768696368206D617467
:104130006368657320796F7572206D61746572694B
:10414000616C2E004E6F7720492077696C6C20706F
:10415000726568656174206E6F7A7A6C6520666F2F
:104160007220504C412E0049732066696C616D6568
:104170006E74206C6F616465643F004973206669EA
:104180006C616D656E742031206C6F616465643F95
:10419000004E6F7720492077696C6C2070726568DB
:1041A000656174206E6F7A7A6C6520666F7220503C
:1041B0004C412E00492077696C6C2072756E207A14
:1041C0002063616C6962726174696F6E206E6F77D3
:1041D0002E004E6F772072656D6F7665207468656E
:1041E0002074657374207072696E742066726F6DCE
:1041F00020737465656C2073686565742E00506C5F
:10420000656173652072656D6F766520736869708E
:1042100070696E672068656C70657273206669727C
:1042200073742E00492077696C6C2072756E20784B
:10423000797A2063616C6962726174696F6E206E55
:104240006F772E2049742077696C6C2074616B65E0
:1042500020617070726F782E203132206D696E731C
:104260002E0046697273742C20492077696C6C208B
:1042700072756E207468652073656C6674657374FE
:1042800020746F20636865636B206D6F73742063A7
:104290006F6D6D6F6E20617373656D626C792070E8
:1042A000726F626C656D732E0048692C2049206125
:1042B0006D20796F7572204F726967696E616C202D
:1042C0005072757361206933207072696E74657203
:1042D0002E20576F756C6420796F75206C696B6543
:1042E000206D6520746F20677569646520796F752E
:1042F000207468726F7567682074686520736574D0
:1043000075702070726F636573733F00452D636F26
:1043100072726563743A005A2D636F7272656374CA
:104320003A00592D636F72726563743A00582D63B9
:104330006F72726563743A0053706F6F6C4A6F6985
:104340006E2020205B4E2F415D0053706F6F6C4AD2
:104350006F696E2020205B6F66665D0053706F6F23
:104360006C4A6F696E202020205B6F6E5D00536F7A
:10437000756E642020202020205B6C6F75645D00CA
:10438000536F756E642020202020205B6D7574654E
:104390005D00536F756E64202020205B73696C652F
:1043A0006E745D00536F756E642020202020205BAA
:1043B0006F6E63655D00536F756E64202020202052
:1043C000205B6C6F75645D00536F72742020202039
:1043D0002020205B6E6F6E655D00536F727420202D
:1043E000205B616C7068616265745D00536F72740C
:1043F000202020202020205B74696D655D005344DF
:10440000206361726420205B6E6F726D616C5D0071
:1044100053442063617264205B666C736841697207
:104420005D0052506920706F727420202020205B44
:104430006F6E5D0052506920706F727420202020D2
:104440005B6F66665D0054656D702E2063616C2E37
:104450002020205B6F6E5D0054656D702E206361BF
:104460006C2E20205B6F66665D004C696E2E2063AB
:104470006F7272656374696F6E004D657368206258
:104480006564206C6576656C696E67004D4D5520DE
:104490004D6F64655B537465616C74685D004D4D70
:1044A00055204D6F6465205B4E6F726D616C5D00D1
:1044B00046616E7320636865636B20205B6F666680
:1044C0005D0046616E7320636865636B2020205B2E
:1044D0006F6E5D00462E206175746F6C6F61642095
:1044E0005B6F66665D00462E206175746F6C6F6150
:1044F0006420205B6F6E5D00462E206175746F6CCA
:104500006F6164205B4E2F415D0044697361626C92
:1045100065207374657070657273004D6F766520E9
:10452000617869730054656D706572617475726548
:104530000054656D702E2063616C696272617469EC
:104540006F6E0052657365742058595A2063616C10
:104550006962722E005049442063616C6962726125
:1045600074696F6E00426564206C6576656C2063CB
:104570006F7272656374004D6573682042656420D4
:104580004C6576656C696E670043616C6962726147
:104590007465205A0043616C6962726174652058C9
:1045A000595A0053656C667465737420202020206E
:1045B00020202020004669727374206C6179657236
:1045C0002063616C2E0057697A617264004C6F61E0
:1045D0006420616C6C0057697A61726420656E6456
:1045E0002073746174653A2025640A004572723A3A
:1045F000205052494E542046414E204552524F526F
:10460000005072696E742066616E20737065656417
:10461000206973206C6F776572207468616E206505
:1046200078706563746564004572723A2045585429
:10463000522E2046414E204552524F52004578742A
:1046400072756465722066616E20737065656420A2
:104650006973206C6F776572207468616E2065786D
:10466000706563746564002F2F20616374696F6ED9
:104670003A7061757365004572723A204D41585425
:10468000454D50003A204578747275646572207308
:1046900077697463686564206F66662E204D4158A3
:1046A00054454D50207472696767657265642021B6
:1046B000004572723A204D415854454D50204245B4
:1046C000440054656D70657261747572652068652B
:1046D00061746564206265642073776974636865DA
:1046E00064206F66662E204D415854454D5020740D
:1046F000726967676572656420210070012C019002
:10470000012701B0012201C0011D01F001180110B3
:1047100002130130020E016002090190020401C07F
:1047200002FF000003FA004003F5008003F000D010
:1047300003EB002004E6007004E100E004DC00402C
:1047400005D700C005D2004006CD00D006C80080C5
:1047500007C3003008BE00F008B900C009B400B0BB
:104760000AAF00B00BAA00D00CA500000EA00050AC
:104770000F9B00C01096005012910000148C00C0D6
:10478000158700B0178200B0197D00D01B7800009B
:104790001E730040206E0090226900F024640040E7
:1047A000275F0090295A00E02B5500102E50002062
:1047B000304B0010324600E033410090353C001091
:1047C00037370070383200A0392D00B03A2800A0E9
:1047D0003B2300603C1E00103D1900903D1400106A
:1047E0003E0F00703E0A00C03E0500003F000090F2
:1047F000137D00B0157800F0177300601A6E00F09A
:104800001C6900A01F640050225F0020255A00E0B0
:10481000275500902A5000202D4B00A02F4600F075
:1048200031410010343C00F0353700A03732002011
:10483000392D00603A2800703B2300603C1E0020A8
:104840003D1900C03D1400403E0F00A03E0A00F09C
:104850003E0500403F0000703FFBFF903FF6FFB079
:104860003FF1FFC03FECFFD03FE7FFE03FE2FFF04A
:104870003FDDFFF03FD8FF20484F54454E442054C1
:104880004845524D414C2052554E41574159002008
:104890004845415442454420544845524D414C20DE
:1048A00052554E4157415900544845524D414C20B4
:1048B00052554E41574159004245442054484552B3
:1048C0004D414C2052554E415741590020544845C6
:1048D000524D414C2052554E4157415920282050AD
:1048E00052454845415420484F54454E44290020E4
:1048F000544845524D414C2052554E415741592044
:10490000282050524548454154204845415442458D
:1049100044290050524548454154204552524F5277
:10492000004245442050524548454154204552528A
:104930004F520024F4D43050C38E20C2A2401782BC
:104940008B7011127A910D816CD90AA861E108C7A8
:10495000586607615143061E4B5D05C145A7041A01
:10496000411104093D9803713931034036DB02657A
:10497000339102D4305402802E1D02632CEE017557
:104980002AC501B028A001102781018F2564012BC1
:10499000244B01E0223401AC211F018D200D018048
:1049A0001FFC00841EED00971DDF00B81CD200E63E
:1049B0001BC600201BBC00641AB200B219A8000A72
:1049C00019A0006A189900D117910040178B00B503
:1049D00016840031167E00B31579003A157300C7AE
:1049E000146F0058146A00EE1366008813630025E4
:1049F000135E00C7125B006C12570015125400C101
:104A000011510070114F0021114B00D61049008D3B
:104A10001047004610440002104200C00F400080C2
:104A20000F3E00420F3C00060F3B00CB0E380093B8
:104A30000E37005C0E3500270E3400F30D3200C136
:104A40000D3100900D3000600D2E00320D2D00054F
:104A50000D2C00D90C2B00AE0C2900850C29005C14
:104A60000C2700350C27000E0C2600E80B2400C490
:104A70000B2400A00B23007D0B23005A0B210039CF
:104A80000B2100180B2000F80A1F00D90A1E00BBDA
:104A90000A1E009D0A1D00800A1D00630A1C0047B3
:104AA0000A1B002C0A1B00110A1A00F7091A00DD64
:104AB000091900C4091900AB091900920917007BF4
:104AC000091800630917004C091600360916002062
:104AD0000916000A091500F5081500E0081400CCB5
:104AE000081400B8081400A4081400900813007DEE
:104AF0000812006B08130058081200460812003410
:104B0000081100230811001208110001081100F01B
:104B1000071000E0071000D0071000C0071000B019
:104B2000070F00A107100091070E0083070F007404
:104B3000070F0065070E0057070E0049070E003BE0
:104B4000070D002E070E0020070D0013070D0006AD
:104B5000070D00F9060C00ED060D00E0060C00D470
:104B6000060C00C8060C00BC060C00B0060C00A425
:104B7000060B0099060C008D060B0082060B0077D1
:104B8000060B006C060B0061060A0057060B004C72
:104B9000060A0042060A0038060A002E060A002409
:104BA000060A001A060A001006090007060A00FD98
:104BB000050900F4050900EB050900E2050900D923
:104BC000050900D0050900C7050900BE050900B5A3
:104BD000050800AD050800A50509009C050800941E
:104BE0000508008C050800840508007C0508007491
:104BF0000508006C050700650508005D05070056FF
:104C00000508004E05070047050700400508003865
:104C1000050700310507002A050700230507001CCA
:104C2000050600160507000F050700080506000227
:104C3000050700FB040600F5040700EE040600E883
:104C4000040600E2040700DB040600D5040600CFDA
:104C5000040600C9040600C3040600BD040600B72C
:104C6000040600B1040500AC040600A6040600A07A
:104C70000405009B04060095040500900406008AC4
:104C800004050085040500800406007A040500750B
:104C9000040500700405006B04050066040500614E
:104CA0000405005C04050057040500520405004D8E
:104CB00004050048040500430405003E0404003ACE
:104CC00004050035040500300404002C0405002709
:104CD000040400230405001E0404001A0404001642
:104CE000040500110404000D040400090405000477
:104CF00004040000040400FC030400F8030400F4AE
:104D0000030400F0030400EC030400E8030400E4DF
:104D1000030400E0030400DC030400D8030400D40F
:104D2000030400D0030400CC030400C8030300C53F
:104D300003030024F404D9201BC40C5C0E9804C4A3
:104D4000095F0265077101F405F900FB04B300482F
:104D5000048700C10369005803550003034500BEE2
:104D6000023A008402310053022A0029022500047D
:104D7000022000E4011C00C8011900AF01170098CF
:104D80000114008401130071011000610110005131
:104D9000010E0043010D0036010B002B010B00201A
:104DA000010B00150109000C01090003010800FBBB
:104DB000000800F3000800EB000700E4000600DE36
:104DC000000600D8000600D2000600CC000500C78F
:104DD000000500C2000500BD000400B9000400B5D4
:104DE000000400B1000400AD000400A9000400A507
:104DF000000300A20003009F0004009B0003009832
:104E00000003009500020093000300900003008D52
:104E10000002008B0003008800020086000200846C
:104E2000000300810002007F0002007D0002007B81
:104E30000002007900020077000100760002007491
:104E400000020072000100710002006F0002006D9C
:104E50000001006C0002006A0001006900020067A6
:104E600000010066000100650001006400020062AC
:104E700000010061000100600001005F0002005DB0
:104E80000001005C0001005B0001005A00010059B4
:104E900000010058000100570001005600010055B4
:104EA00000010054000100530000005300010052B3
:104EB00000010051000100500001004F0001004EB0
:104EC0000000004E0001004D0001004C0001004BAD
:104ED0000000004B0001004A0001004900010048A9
:104EE00000000048000100470001004600000046A5
:104EF000000100450000004500010044000100439E
:104F00000000004300010042000000420001004197
:104F100000000041000100400001003F0000003F90
:104F20000001003E0000003E0001003D0000003D89
:104F30000001003C0000003C0000003C0001003B80
:104F40000000003B0001003A0000003A0001003977
:104F5000000000390001003800000038000000386F
:104F60000001003700000037000100360000003665
:104F7000000000360001003500000035000000355B
:104F80000001003400000034000000340001003350
:104F90000000003300000033000100320000003246
:104FA000000000320001003100000031000000313B
:104FB0000001003000000030000000300001002F30
:104FC0000000002F0000002F0000002F0001002E25
:104FD0000000002E0000002E0001002D0000002D1A
:104FE0000000002D0000002D0001002C0000002C0E
:104FF0000000002C0000002C0001002B0000002B02
:105000000000002B0000002B0001002A0000002AF5
:105010000000002A0000002A0001002900000029E9
:1050200000000029000000290000002900010028DC
:1050300000000028000000280000002800000028D0
:1050400000010027000000270000002700000027C3
:1050500000000027000100260000002600000026B6
:1050600000000026000000260001002500000025A9
:10507000000000250000002500000025000000259C
:10508000000100240000002400000024000000248F
:105090000000002400010023000000230000002382
:1050A0000000002300000023000000230000002374
:1050B0000001002200000022000000220000002267
:1050C0000000002200000022000100210000002159
:1050D000000000210000002100000021000000214C
:1050E000000000210001002000000020000000203E
:1050F0000000002000000020000000200000002030
:10510000000000200001001F0000001F0000001F21
:105110000000001F0000001F0000001F0000001F13
:105120000001001E0000001E0000001E0000001E06
:10513000000000456A6563742066696C616D656E88
:105140007400506C656173652070756C6C206F75B0
:10515000742066696C616D656E7420696D6D65643F
:10516000696174656C7900556E6C6F6164696E6716
:105170002066696C616D656E7400526573756D694A
:105180006E67207072696E7400537570706F727400
:10519000004661696C207374617473204D4D550035
:1051A0004661696C2073746174730053746174692F
:1051B000737469637320200043616C696272617467
:1051C000696F6E004175746F4C6F61642066696C25
:1051D000616D656E7400456A6563742066696C6113
:1051E0006D656E7400556E6C6F61642066696C61EC
:1051F0006D656E74004C6F616420746F206E6F7A01
:105200007A6C65004C6F61642066696C616D656ED7
:1052100074004E6F205344206361726400507269C1
:105220006E742066726F6D20534400526573756D05
:1052300065207072696E74005061757365207072BC
:10524000696E7400507265686561740054756E65AE
:10525000004C6976652061646A757374205A004950
:105260006E666F2073637265656E0046696E697362
:1052700068696E67206D6F76656D656E7473005337
:105280006F756E642020202020205B6C6F75645D3C
:1052900000536F756E642020202020205B6D757494
:1052A000655D00536F756E64202020205B73696C10
:1052B000656E745D00536F756E6420202020202081
:1052C0005B6F6E63655D00536F756E6420202020F8
:1052D00020205B6C6F75645D004D4D55204D6F64F3
:1052E000655B537465616C74685D004D4D55204D70
:1052F0006F6465205B4E6F726D616C5D004372611F
:105300007368206465742E20205B4E2F415D00433E
:1053100072617368206465742E2020205B6F6E5D5F
:10532000004372617368206465742E20205B6F6691
:10533000665D004D6F6465202020205B53746561BD
:105340006C74685D004D6F646520202020205B4EEA
:105350006F726D616C5D0046696C2E2073656E73B3
:105360006F7220205B6F6E5D0046696C2E20736546
:105370006E736F72205B6F66665D004368616E6777
:10538000652066696C616D656E7400466C6F7700B0
:105390005370656564004D61676E65747320636F5B
:1053A0006D702E5B4E2F415D004D61676E657473AD
:1053B00020636F6D702E5B4F66665D004D61676E9A
:1053C00065747320636F6D702E205B4F6E5D005AA5
:1053D0002D70726F6265206E722E202020205B334C
:1053E0005D005A2D70726F6265206E722E20202033
:1053F000205B355D005A2D70726F6265206E722ED3
:10540000202020205B315D004D6573682020202026
:1054100020202020205B3778375D004D65736820A1
:1054200020202020202020205B3378335D0046613F
:105430006E20737065656400426564004E6F7A7A11
:105440006C650053657474696E6773005072696EA1
:10545000742061626F7274656400596573004E6FE9
:105460000053746F70207072696E740043686F6FC0
:10547000736520636F6C6F723A004661726D206EC7
:10548000756D626572004D363030000000211042AB
:105490002063308440A550C660E770088129914A96
:1054A000A16BB18CC1ADD1CEE1EFF131121002731D
:1054B000325222B5529442F772D662399318837BE6
:1054C000B35AA3BDD39CC3FFF3DEE362244334206D
:1054D000040114E664C774A44485546AA54BB52836
:1054E000850995EEE5CFF5ACC58DD55336722611FD
:1054F000163006D776F6669556B4465BB77AA71986
:10550000973887DFF7FEE79DD7BCC7C448E55886C4
:1055100068A7784008611802282338CCC9EDD98ED5
:10552000E9AFF9488969990AA92BB9F55AD44AB75C
:105530007A966A711A500A333A122AFDDBDCCBBF25
:10554000FB9EEB799B588B3BBB1AABA66C877CE42C
:105550004CC55C222C033C600C411CAEED8FFDEC75
:10556000CDCDDD2AAD0BBD688D499D977EB66ED53C
:105570005EF44E133E322E511E700E9FFFBEEFDDC5
:10558000DFFCCF1BBF3AAF599F788F8891A981CAA2
:10559000B1EBA10CD12DC14EF16FE18010A100C281
:1055A00030E3200450254046706760B9839893FB30
:1055B000A3DAB33DC31CD37FE35EF3B1029012F3D1
:1055C00022D2323542145277625672EAB5CBA5A880
:1055D0009589856EF54FE52CD50DC5E234C324A021
:1055E0001481046674476424540544DBA7FAB79910
:1055F00087B8975FE77EF71DC73CD7D326F2369171
:1056000006B01657667676154634564CD96DC90ED7
:10561000F92FE9C899E9898AB9ABA94458654806C0
:10562000782768C018E1088238A3287DCB5CDB3F6F
:10563000EB1EFBF98BD89BBBAB9ABB754A545A3710
:105640006A167AF10AD01AB32A923A2EFD0FED6C3F
:10565000DD4DCDAABD8BADE89DC98D267C076C6460
:105660005C454CA23C832CE01CC10C1FEF3EFF5D4F
:10567000CF7CDF9BAFBABFD98FF89F176E367E55B0
:105680004E745E932EB23ED10EF01E7C3C3E5E2BDD
:105690003D3F2F5B5D3B2C2A225C001000C90210AD
:1056A000012C014001220170011801B0010E01F02E
:1056B0000104015002FA00B002F0003003E600D00D
:1056C00003DC009004D2007005C800A006BE0000F4
:1056D00008B400B009AA00D00BA000600E960060CC
:1056E000118C000015820020197800C01D6E00A0EA
:1056F000226400B0275A00902C500000314600E090
:10570000343C0010383200903A2800603C1E00A063
:105710003D1400803E0A00203F00004D494E544594
:105720004D5020666978656400506C656173652032
:1057300072657374617274004572723A204D494EFD
:1057400054454D50003A2045787472756465722056
:105750007377697463686564206F66662E204D49AF
:105760004E54454D502074726967676572656420B8
:1057700021004572723A204D494E54454D50204209
:1057800045440054656D706572617475726520687A
:105790006561746564206265642073776974636809
:1057A0006564206F66662E204D494E54454D50204D
:1057B000747269676765726564202100746D633275
:1057C0003133305F686F6D655F656E746572286137
:1057D0007865735F6D61736B3D3078253032782961
:1057E0000A00746D63323133305F686F6D655F65D9
:1057F00078697420746D63323133305F73675F682A
:105800006F6D696E675F617865735F6D61736B3D26
:105810003078253032780A0022206661696C656430
:105820003A204275666665722066756C6C210022AE
:105830000022206661696C65643A2042756666657F
:10584000722066756C6C2100456E717565696E67B6
:1058500020746F207468652066726F6E743A20221F
:10586000002200456E717565696E6720746F207443
:1058700068652066726F6E743A2022002569206880
:105880006F757273202569206D696E75746573007C
:1058900054494D454F55543A004D3131300046750D
:1058A0006C6C2052582042756666657200656E7198
:1058B0007565696E67202200446F6E65207072699D
:1058C0006E74696E672066696C65005072696E74EB
:1058D00065722073746F70706564206475652074E0
:1058E0006F206572726F72732E204669782074681B
:1058F00065206572726F7220616E64207573652019
:105900004D39393920746F20726573746172742E49
:10591000202854656D7065726174757265206973B5
:105920002072657365742E2053657420697420613C
:10593000667465722072657374617274696E67292A
:10594000004E6F204C696E65204E756D6265722049
:105950007769746820636865636B73756D2C204C80
:10596000617374204C696E653A20004E6F20436865
:1059700065636B73756D2077697468206C696E65FB
:10598000206E756D6265722C204C617374204C69B9
:105990006E653A2000636865636B73756D206D6991
:1059A000736D617463682C204C617374204C696E54
:1059B000653A20004C696E65204E756D62657220F7
:1059C0006973206E6F74204C617374204C696E652E
:1059D000204E756D6265722B312C204C61737420E2
:1059E0004C696E653A200053544F505045442E2068
:1059F00000776F726C6420636F6F7264696E61749C
:105A000065733A2028252E33662C20252E33662CEC
:105A100020252E3366290A00706879736963616CEA
:105A200020636F6F7264696E617465733A20282514
:105A30002E33662C20252E33662C20252E33662906
:105A40000A0043757272656E7420706F73205A5F1E
:105A5000415849533A252E33660A43757272656E72
:105A60007420706F7320455F415849533A252E3397
:105A7000660A0041667465722077616974696E67B1
:105A800020666F722074656D703A0A437572726594
:105A90006E7420706F7320585F415849533A252E19
:105AA00033660A43757272656E7420706F73205985
:105AB0005F415849533A252E33660A007265636F79
:105AC0007665725F6D616368696E655F737461743A
:105AD000655F61667465725F706F7765725F706134
